:0300000002037A7E
:0C037A00787FE4F6D8FD7581180203C1FD
:0D0514000B083F065B4F666D7D077F6F0093
:0404FB007F147E00EC
:1004FF00EF1FAC0670011E4C600A7D027CEFDCFE24
:04050F00DDFC80ECA3
:0105130022C5
:07049100FD3395E0FC7F0143
:10049800EF14B4080050549004AD75F003A4C5835C
:1004A80025F0C583730204C50204C90204CD020401
:1004B800D10204D50204DD0204E50204EDD2A480D1
:1004C8000ED2A48012D2A48016D2A4801AC2A4D2BA
:1004D800A3D2A28016C2A4D2A3C2A2800EC2A4C272
:1004E800A3D2A28006C2A4C2A3C2A274082DF8E6B1
:0304F800F580226A
:100288007B197590FFC29320970B1204FB3097FAE5
:100298007B0B02037720960B1204FB3097FA7B0145
:1002A80002037720950B1204FB3097FA7B050203B3
:1002B8007720940B1204FB3097FA7B0902037775B9
:1002C80090FFC29220970B1204FB3097FA7B0C0226
:1002D800037720960B1204FB3097FA7B0202037710
:1002E80020950B1204FB3097FA7B060203772094C3
:1002F8000B1204FB3097FAE4FB0203777590FFC2F8
:100308009120970A1204FB3097FA7B0D80612096A2
:100318000A1204FB3097FA7B03805420950A1204D2
:10032800FB3097FA7B07804720940A1204FB30972A
:10033800FA7B15803A7590FFC29020970A1204FB49
:100348003097FA7B16802820960A1204FB3097FA19
:100358007B04801B20950A1204FB3097FA7B0880E7
:100368000E30940302028A1204FB3097FA7B17AF0F
:010378000381
:010379002261
:10016B00E514FD3395E0FC7F02120498E4F5807DE5
:06017B000AFC1F120498AB
:100181007F197590FFC29320970C3097FD7F027EF7
:10019100001204FF7F0B20960C3097FD7F027E003A
:1001A1001204FF7F0120950C3097FD7F027E001223
:1001B10004FF7F0520940C3097FD7F027E0012041E
:1001C100FF7F097590FFC29220970C3097FD7F0247
:1001D1007E001204FF7F0C20960C3097FD7F027E7B
:1001E100001204FF7F0220950C3097FD7F027E00F4
:1001F1001204FF7F0620940C3097FD7F027E0012CF
:1002010004FFE4FF7590FFC29120970C3097FD7FAA
:10021100027E001204FF7F0D20960C3097FD7F02B5
:100221007E001204FF7F0320950C3097FD7F027E34
:10023100001204FF7F0720940C3097FD7F027E009F
:100241001204FF7F157590FFC29020970C3097FD27
:100251007F027E001204FF7F1620960C3097FD7FEF
:10026100027E001204FF7F0420950C3097FD7F026F
:100271007E001204FF7F0820940C3097FD7F027EE0
:06028100001204FF7F17CC
:010287002254
:1000030079427513427D0A7C007F01120498120223
:1000130088A907E912016DAA07EA3395E0FEEF64A8
:10002300194E70EFE912016DAA07EA3395E0FEEF6E
:1000330064194E60EF1202888F13E9120491E4F5FC
:1000430080E513FD3395E0FC0F120498E4F580126C
:100053000181AA07EA3395E0FEEF640B4E70DBE4FF
:10006300FDFC7F01120498E4F5800F120498E4F577
:1000730080120181AA07EA3395E0FEEF64194E70FE
:10008300DEE4FDFC7F02120498E4F5801F1204985D
:10009300E4F580120181AA07EA3395E0FEEF6419C3
:1000A3004E60DE1202888F1412016BAA07EA3395A1
:1000B300E0FEEF64194E70F012016BAA07EA339564
:1000C300E0FEEF64194E60F0120288AB07E51412EC
:1000D3000491E4F580EBFD3395E0FC0F120498E402
:1000E300F580120181AA07EA3395E0FEEF640C4E16
:1000F30070DBE975F00AA42513FFE51475F00AA473
:100103002BFD3395E0FCEF3395E0FEEF2DFFEE3C46
:10011300AB07FA7C007D64FE1204068E158F167CF5
:10012300007D0AAF03AE021204067C007D0A1204AE
:10013300068C178D18AE02AF037C007D0A120406ED
:10014300AB05AA04AD16AC157F01120498E4F58043
:10015300AD18AC170F120498E4F580AD03AC020F91
:08016300120498E4F58080DC31
:10038600020003E493A3F8E493A34003F68001F28A
:1003960008DFF48029E493A3F85407240CC8C33378
:1003A600C4540F4420C8834004F456800146F6DF47
:1003B600E4800B0102040810204080900514E47EBE
:1003C600019360BCA3FF543F30E509541FFEE4933C
:1003D600A360010ECF54C025E060A840B8E493A303
:1003E600FAE493A3F8E493A3C8C582C8CAC583CA2E
:1003F600F0A3C8C582C8CAC583CADFE9DEE780BEE6
:0105210000D9
:10040600C2D5EC30E709B2D5E4C39DFDE49CFCEE11
:1004160030E715B2D5E4C39FFFE49EFE12043CC349
:10042600E49DFDE49CFC800312043C30D507C3E444
:060436009FFFE49EFE2280
:10043C00BC000BBE0029EF8DF084FFADF022E4CCA4
:10044C00F875F008EF2FFFEE33FEEC33FCEE9DEC6D
:10045C00984005FCEE9DFE0FD5F0E9E4CEFD22EDB3
:10046C00F8F5F0EE8420D21CFEADF075F008EF2FFD
:10047C00FFED33FD4007985006D5F0F222C398FDEE
:05048C000FD5F0EA228B
:00000001FF
